{
  "contractName": "Ballot",
  "abi": [
    {
      "constant": true,
      "inputs": [
        {
          "name": "",
          "type": "int256"
        }
      ],
      "name": "proposals",
      "outputs": [
        {
          "name": "proposalID",
          "type": "int256"
        },
        {
          "name": "numPos",
          "type": "int256"
        },
        {
          "name": "numNeg",
          "type": "int256"
        },
        {
          "name": "title",
          "type": "string"
        },
        {
          "name": "content",
          "type": "string"
        },
        {
          "name": "proposalHash",
          "type": "string"
        }
      ],
      "payable": false,
      "stateMutability": "view",
      "type": "function",
      "signature": "0x130fb26d"
    },
    {
      "constant": true,
      "inputs": [
        {
          "name": "",
          "type": "address"
        },
        {
          "name": "",
          "type": "int256"
        }
      ],
      "name": "voters",
      "outputs": [
        {
          "name": "",
          "type": "int256"
        }
      ],
      "payable": false,
      "stateMutability": "view",
      "type": "function",
      "signature": "0x3ddca616"
    },
    {
      "constant": true,
      "inputs": [
        {
          "name": "",
          "type": "address"
        }
      ],
      "name": "voterAdded",
      "outputs": [
        {
          "name": "",
          "type": "bool"
        }
      ],
      "payable": false,
      "stateMutability": "view",
      "type": "function",
      "signature": "0xb9e5f904"
    },
    {
      "constant": true,
      "inputs": [],
      "name": "proposalCount",
      "outputs": [
        {
          "name": "",
          "type": "int256"
        }
      ],
      "payable": false,
      "stateMutability": "view",
      "type": "function",
      "signature": "0xda35c664"
    },
    {
      "inputs": [],
      "payable": false,
      "stateMutability": "nonpayable",
      "type": "constructor",
      "signature": "constructor"
    },
    {
      "anonymous": false,
      "inputs": [
        {
          "indexed": false,
          "name": "proposalID",
          "type": "int256"
        },
        {
          "indexed": false,
          "name": "numPos",
          "type": "int256"
        },
        {
          "indexed": false,
          "name": "numNeg",
          "type": "int256"
        },
        {
          "indexed": false,
          "name": "title",
          "type": "string"
        },
        {
          "indexed": false,
          "name": "content",
          "type": "string"
        },
        {
          "indexed": false,
          "name": "proposalHash",
          "type": "string"
        }
      ],
      "name": "ProposalCreated",
      "type": "event",
      "signature": "0xac42b0c671549f12eeb6227ab2cc0c00804e8ade3410893fc4286993f6f0a56b"
    },
    {
      "anonymous": false,
      "inputs": [
        {
          "indexed": false,
          "name": "x",
          "type": "address"
        }
      ],
      "name": "VoterAdded",
      "type": "event",
      "signature": "0xa636f4a11e2d3ba7f89d042ecb0a6b886716e98cd49d8fd876ee0f73bced42b8"
    },
    {
      "anonymous": false,
      "inputs": [
        {
          "indexed": false,
          "name": "numPos",
          "type": "int256"
        },
        {
          "indexed": false,
          "name": "numNeg",
          "type": "int256"
        }
      ],
      "name": "change",
      "type": "event",
      "signature": "0xf6bc809835d7ac3b904bbc6560ddceeeb906355c080f278a8b7bf055eceaacc3"
    },
    {
      "constant": false,
      "inputs": [
        {
          "name": "add",
          "type": "address"
        }
      ],
      "name": "addVoter",
      "outputs": [],
      "payable": false,
      "stateMutability": "nonpayable",
      "type": "function",
      "signature": "0xf4ab9adf"
    },
    {
      "constant": false,
      "inputs": [
        {
          "name": "_title",
          "type": "string"
        },
        {
          "name": "_content",
          "type": "string"
        },
        {
          "name": "_proposalHash",
          "type": "string"
        }
      ],
      "name": "createProposal",
      "outputs": [],
      "payable": false,
      "stateMutability": "nonpayable",
      "type": "function",
      "signature": "0x583cf379"
    },
    {
      "constant": false,
      "inputs": [
        {
          "name": "proposalID",
          "type": "int256"
        },
        {
          "name": "voterAddress",
          "type": "address"
        }
      ],
      "name": "proposalUpvoted",
      "outputs": [],
      "payable": false,
      "stateMutability": "nonpayable",
      "type": "function",
      "signature": "0xc87a58a6"
    },
    {
      "constant": false,
      "inputs": [
        {
          "name": "proposalID",
          "type": "int256"
        },
        {
          "name": "voterAddress",
          "type": "address"
        }
      ],
      "name": "proposalDownvoted",
      "outputs": [],
      "payable": false,
      "stateMutability": "nonpayable",
      "type": "function",
      "signature": "0xb289abb3"
    }
  ],
  "bytecode": "0x6080604052600080553480156200001557600080fd5b50620000dd606060405190810160405280602281526020017f53686f756c64205341532072656e6f76617465207468656972206c696272617281526020017f793f00000000000000000000000000000000000000000000000000000000000081525060e06040519081016040528060af815260200162001c3160af91396040805190810160405280600981526020017f70726f7048617368310000000000000000000000000000000000000000000000815250620001db640100000000026401000000009004565b620001a7606060405190810160405280602281526020017f53686f756c64206174686c65746963732062652064652d656d7068617369736581526020017f643f000000000000000000000000000000000000000000000000000000000000815250610420604051908101604052806103f08152602001620018416103f091396040805190810160405280600981526020017f70726f7048617368320000000000000000000000000000000000000000000000815250620001db640100000000026401000000009004565b620001d5730d3fe60dddcad85b534ea8b291cd7bc04bc5f3ef6200044f640100000000026401000000009004565b62000632565b600080815480929190600101919050555060c0604051908101604052806000548152602001600081526020016000815260200184815260200183815260200182815250600160008054815260200190815260200160002060008201518160000155602082015181600101556040820151816002015560608201518160030190805190602001906200026e92919062000583565b5060808201518160040190805190602001906200028d92919062000583565b5060a0820151816005019080519060200190620002ac92919062000583565b509050507fac42b0c671549f12eeb6227ab2cc0c00804e8ade3410893fc4286993f6f0a56b60005460008086868660405180878152602001868152602001858152602001806020018060200180602001848103845287818151815260200191508051906020019080838360005b838110156200033657808201518184015260208101905062000319565b50505050905090810190601f168015620003645780820380516001836020036101000a031916815260200191505b50848103835286818151815260200191508051906020019080838360005b838110156200039f57808201518184015260208101905062000382565b50505050905090810190601f168015620003cd5780820380516001836020036101000a031916815260200191505b50848103825285818151815260200191508051906020019080838360005b8381101562000408578082015181840152602081019050620003eb565b50505050905090810190601f168015620004365780820380516001836020036101000a031916815260200191505b50995050505050505050505060405180910390a1505050565b6001600260008373ffffffffffffffffffffffffffffffffffffffff1673ffffffffffffffffffffffffffffffffffffffff16815260200190815260200160002060006101000a81548160ff0219169083151502179055507fa636f4a11e2d3ba7f89d042ecb0a6b886716e98cd49d8fd876ee0f73bced42b881604051808273ffffffffffffffffffffffffffffffffffffffff1673ffffffffffffffffffffffffffffffffffffffff16815260200191505060405180910390a160008090505b6000548112156200057f576000600360008473ffffffffffffffffffffffffffffffffffffffff1673ffffffffffffffffffffffffffffffffffffffff168152602001908152602001600020600083815260200190815260200160002081905550808060010191505062000510565b5050565b828054600181600116156101000203166002900490600052602060002090601f016020900481019282601f10620005c657805160ff1916838001178555620005f7565b82800160010185558215620005f7579182015b82811115620005f6578251825591602001919060010190620005d9565b5b5090506200060691906200060a565b5090565b6200062f91905b808211156200062b57600081600090555060010162000611565b5090565b90565b6111ff80620006426000396000f3fe60806040526004361061008e576000357c0100000000000000000000000000000000000000000000000000000000900463ffffffff168063130fb26d146100935780633ddca61614610234578063583cf379146102a3578063b289abb314610499578063b9e5f904146104f4578063c87a58a61461055d578063da35c664146105b8578063f4ab9adf146105e3575b600080fd5b34801561009f57600080fd5b506100cc600480360360208110156100b657600080fd5b8101908080359060200190929190505050610634565b60405180878152602001868152602001858152602001806020018060200180602001848103845287818151815260200191508051906020019080838360005b8381101561012657808201518184015260208101905061010b565b50505050905090810190601f1680156101535780820380516001836020036101000a031916815260200191505b50848103835286818151815260200191508051906020019080838360005b8381101561018c578082015181840152602081019050610171565b50505050905090810190601f1680156101b95780820380516001836020036101000a031916815260200191505b50848103825285818151815260200191508051906020019080838360005b838110156101f25780820151818401526020810190506101d7565b50505050905090810190601f16801561021f5780820380516001836020036101000a031916815260200191505b50995050505050505050505060405180910390f35b34801561024057600080fd5b5061028d6004803603604081101561025757600080fd5b81019080803573ffffffffffffffffffffffffffffffffffffffff16906020019092919080359060200190929190505050610838565b6040518082815260200191505060405180910390f35b3480156102af57600080fd5b50610497600480360360608110156102c657600080fd5b81019080803590602001906401000000008111156102e357600080fd5b8201836020820111156102f557600080fd5b8035906020019184600183028401116401000000008311171561031757600080fd5b91908080601f016020809104026020016040519081016040528093929190818152602001838380828437600081840152601f19601f8201169050808301925050505050505091929192908035906020019064010000000081111561037a57600080fd5b82018360208201111561038c57600080fd5b803590602001918460018302840111640100000000831117156103ae57600080fd5b91908080601f016020809104026020016040519081016040528093929190818152602001838380828437600081840152601f19601f8201169050808301925050505050505091929192908035906020019064010000000081111561041157600080fd5b82018360208201111561042357600080fd5b8035906020019184600183028401116401000000008311171561044557600080fd5b91908080601f016020809104026020016040519081016040528093929190818152602001838380828437600081840152601f19601f82011690508083019250505050505050919291929050505061085d565b005b3480156104a557600080fd5b506104f2600480360360408110156104bc57600080fd5b8101908080359060200190929190803573ffffffffffffffffffffffffffffffffffffffff169060200190929190505050610ac2565b005b34801561050057600080fd5b506105436004803603602081101561051757600080fd5b81019080803573ffffffffffffffffffffffffffffffffffffffff169060200190929190505050610d33565b604051808215151515815260200191505060405180910390f35b34801561056957600080fd5b506105b66004803603604081101561058057600080fd5b8101908080359060200190929190803573ffffffffffffffffffffffffffffffffffffffff169060200190929190505050610d53565b005b3480156105c457600080fd5b506105cd610ff6565b6040518082815260200191505060405180910390f35b3480156105ef57600080fd5b506106326004803603602081101561060657600080fd5b81019080803573ffffffffffffffffffffffffffffffffffffffff169060200190929190505050610ffc565b005b6001602052806000526040600020600091509050806000015490806001015490806002015490806003018054600181600116156101000203166002900480601f0160208091040260200160405190810160405280929190818152602001828054600181600116156101000203166002900480156106f25780601f106106c7576101008083540402835291602001916106f2565b820191906000526020600020905b8154815290600101906020018083116106d557829003601f168201915b505050505090806004018054600181600116156101000203166002900480601f0160208091040260200160405190810160405280929190818152602001828054600181600116156101000203166002900480156107905780601f1061076557610100808354040283529160200191610790565b820191906000526020600020905b81548152906001019060200180831161077357829003601f168201915b505050505090806005018054600181600116156101000203166002900480601f01602080910402602001604051908101604052809291908181526020018280546001816001161561010002031660029004801561082e5780601f106108035761010080835404028352916020019161082e565b820191906000526020600020905b81548152906001019060200180831161081157829003601f168201915b5050505050905086565b6003602052816000526040600020602052806000526040600020600091509150505481565b600080815480929190600101919050555060c0604051908101604052806000548152602001600081526020016000815260200184815260200183815260200182815250600160008054815260200190815260200160002060008201518160000155602082015181600101556040820151816002015560608201518160030190805190602001906108ee92919061112e565b50608082015181600401908051906020019061090b92919061112e565b5060a082015181600501908051906020019061092892919061112e565b509050507fac42b0c671549f12eeb6227ab2cc0c00804e8ade3410893fc4286993f6f0a56b60005460008086868660405180878152602001868152602001858152602001806020018060200180602001848103845287818151815260200191508051906020019080838360005b838110156109b0578082015181840152602081019050610995565b50505050905090810190601f1680156109dd5780820380516001836020036101000a031916815260200191505b50848103835286818151815260200191508051906020019080838360005b83811015610a165780820151818401526020810190506109fb565b50505050905090810190601f168015610a435780820380516001836020036101000a031916815260200191505b50848103825285818151815260200191508051906020019080838360005b83811015610a7c578082015181840152602081019050610a61565b50505050905090810190601f168015610aa95780820380516001836020036101000a031916815260200191505b50995050505050505050505060405180910390a1505050565b6000600360008373ffffffffffffffffffffffffffffffffffffffff1673ffffffffffffffffffffffffffffffffffffffff16815260200190815260200160002060008481526020019081526020016000205490506001811415610be7577fffffffffffffffffffffffffffffffffffffffffffffffffffffffffffffffff600360008473ffffffffffffffffffffffffffffffffffffffff1673ffffffffffffffffffffffffffffffffffffffff1681526020019081526020016000206000858152602001908152602001600020819055506001600084815260200190815260200160002060010160008154809291906001900391905055506001600084815260200190815260200160002060020160008154809291906001019190505550610cc3565b6000811415610c1b576001600084815260200190815260200160002060020160008154809291906001019190505550610cc2565b7fffffffffffffffffffffffffffffffffffffffffffffffffffffffffffffffff811415610cc1576000600360008473ffffffffffffffffffffffffffffffffffffffff1673ffffffffffffffffffffffffffffffffffffffff1681526020019081526020016000206000858152602001908152602001600020819055506001600084815260200190815260200160002060020160008154809291906001900391905055505b5b5b7ff6bc809835d7ac3b904bbc6560ddceeeb906355c080f278a8b7bf055eceaacc360016000858152602001908152602001600020600101546001600086815260200190815260200160002060020154604051808381526020018281526020019250505060405180910390a1505050565b60026020528060005260406000206000915054906101000a900460ff1681565b6000600360008373ffffffffffffffffffffffffffffffffffffffff1673ffffffffffffffffffffffffffffffffffffffff16815260200190815260200160002060008481526020019081526020016000205490506001811415610e30576000600360008473ffffffffffffffffffffffffffffffffffffffff1673ffffffffffffffffffffffffffffffffffffffff168152602001908152602001600020600085815260200190815260200160002081905550600180600085815260200190815260200160002060010160008282540392505081905550610f86565b6000811415610eb8576001600360008473ffffffffffffffffffffffffffffffffffffffff1673ffffffffffffffffffffffffffffffffffffffff168152602001908152602001600020600085815260200190815260200160002081905550600180600085815260200190815260200160002060010160008282540192505081905550610f85565b7fffffffffffffffffffffffffffffffffffffffffffffffffffffffffffffffff811415610f84576001600360008473ffffffffffffffffffffffffffffffffffffffff1673ffffffffffffffffffffffffffffffffffffffff16815260200190815260200160002060008581526020019081526020016000208190555060016000848152602001908152602001600020600101600081548092919060010191905055506001600084815260200190815260200160002060020160008154809291906001900391905055505b5b5b7ff6bc809835d7ac3b904bbc6560ddceeeb906355c080f278a8b7bf055eceaacc360016000858152602001908152602001600020600101546001600086815260200190815260200160002060020154604051808381526020018281526020019250505060405180910390a1505050565b60005481565b6001600260008373ffffffffffffffffffffffffffffffffffffffff1673ffffffffffffffffffffffffffffffffffffffff16815260200190815260200160002060006101000a81548160ff0219169083151502179055507fa636f4a11e2d3ba7f89d042ecb0a6b886716e98cd49d8fd876ee0f73bced42b881604051808273ffffffffffffffffffffffffffffffffffffffff1673ffffffffffffffffffffffffffffffffffffffff16815260200191505060405180910390a160008090505b60005481121561112a576000600360008473ffffffffffffffffffffffffffffffffffffffff1673ffffffffffffffffffffffffffffffffffffffff16815260200190815260200160002060008381526020019081526020016000208190555080806001019150506110bd565b5050565b828054600181600116156101000203166002900490600052602060002090601f016020900481019282601f1061116f57805160ff191683800117855561119d565b8280016001018555821561119d579182015b8281111561119c578251825591602001919060010190611181565b5b5090506111aa91906111ae565b5090565b6111d091905b808211156111cc5760008160009055506001016111b4565b5090565b9056fea165627a7a72305820f5ffed43b66765ed27ba580889f02824aca2bfd178a4a349696bf03c4c8a91ca00294174206f7572207363686f6f6c2c2077652061726520636f6e7374616e746c7920746f6c642061626f757420746865206163636f6d706c6973686d656e7473206f66204941534153206174686c657465732e2057652068617665207065702072616c6c6965732c20616e64204941534153206174686c657465732061726520676976656e2072656420626167732e20496e206f6e65206f662074686520686f75736520617373656d626c6965732c20616c6c206174686c6574657320776572652061736b656420746f207374616e642075702c20666f7220746865697220646966666572656e742073706f7274732e20496d6167696e6520776861742069662066656c74206c696b6520666f722074686f73652077686f206469646ee28099742074616b65207061727420696e206174686c65746963732c207768656e2074686579207765726520746865206f6e6c792070656f706c65207374616e64696e672075702e205468697320776f756c642062652066696e6520696620746865792077657265207265636f676e697a65642c20627574207175697465206672616e6b6c792c2074686579206172656ee28099742e2057652061726520636f6e7374616e746c792061736b656420746f20e2809c537570706f7274206f7572204561676c6573e2809d206174206174686c65746963206576656e74732c2062757420666f722043756c436f6e2c206e6f626f6479207265616c6c792063617265732e2054686973206973737565206973206675727468657220776f7273656e6564207769746820746865205363686f6c617273204c756e6368656f6e2e205468652047504120726571756972656d656e7420697320332e372c207768696368206973206c6f7720656e6f75676820666f722061206772656174206e756d626572206f662070656f706c6520746f207175616c69667920666f722069742e2042757420666f722074686f73652077686f206172656ee280997420617320676f6f642061636164656d6963616c6c792c207468657920776f756c64206665656c2065787472656d656c7920626164207768656e2068616c6620746865207363686f6f6c20676f657320746f207468652067796d206f6e65206c756e63682e20467572746865726d6f72652c2074686f73652077686f2068617665207665727920676f6f6420475041732c206c696b6520686176696e672061626f7665206120342e312c2063616ee2809974206665656c207265636f676e697a65642062656361757365207468657920617265206265696e67207265636f676e697a656420776974682068616c6620746865207363686f6f6c2c20e2809c64696c7574696e67e2809d207468656972207265636f676e6974696f6e2e48657265206973206120726561736f6e20666f7220746869732070726f706f73616c2e48657265206973206120726561736f6e20666f7220746869732070726f706f73616c2e48657265206973206120726561736f6e20666f7220746869732070726f706f73616c2e48657265206973206120726561736f6e20666f7220746869732070726f706f73616c2e48657265206973206120726561736f6e20666f7220746869732070726f706f73616c2e",
  "source": "pragma solidity ^0.5.0;\n\ncontract Ballot{\n    int public proposalCount = 0;\n    struct Voter {\n        address x;\n    }\n    struct Proposal{\n        int proposalID; \n        int numPos;\n        int numNeg;\n        string title;\n        string content;\n        string proposalHash;\n    }\n    mapping(int => Proposal) public proposals;\n    mapping(address => bool) public voterAdded;\n    mapping(address => mapping(int => int)) public voters; //address to voter's current vote\n\n    event ProposalCreated(\n        int proposalID,\n        int numPos,\n        int numNeg,\n        string title,\n        string content,\n        string proposalHash\n    );\n\n    event VoterAdded(\n        address x\n    );\n\n    event change(\n        int numPos,\n        int numNeg\n    );\n/*\n    event ItemUpvoted(\t\n        int proposalID,\t\n        int currentVote\n    );\n\n    event ItemDownvoted(\t\n        int proposalID,\t\n        int currentVote\n    );\n*/\n\n    constructor() public{\n        createProposal(\"Should SAS renovate their library?\", \"Here is a reason for this proposal.Here is a reason for this proposal.Here is a reason for this proposal.Here is a reason for this proposal.Here is a reason for this proposal.\",\"propHash1\");\n        createProposal(\"Should athletics be de-emphasised?\", \"At our school, we are constantly told about the accomplishments of IASAS athletes. We have pep rallies, and IASAS athletes are given red bags. In one of the house assemblies, all athletes were asked to stand up, for their different sports. Imagine what if felt like for those who didn’t take part in athletics, when they were the only people standing up. This would be fine if they were recognized, but quite frankly, they aren’t. We are constantly asked to “Support our Eagles” at athletic events, but for CulCon, nobody really cares. This issue is further worsened with the Scholars Luncheon. The GPA requirement is 3.7, which is low enough for a great number of people to qualify for it. But for those who aren’t as good academically, they would feel extremely bad when half the school goes to the gym one lunch. Furthermore, those who have very good GPAs, like having above a 4.1, can’t feel recognized because they are being recognized with half the school, “diluting” their recognition.\",\"propHash2\");\n        addVoter(0x0D3FE60dDDcaD85B534EA8b291cd7bc04bc5f3ef);\n    }\n\n    function addVoter(address add) public{\n        voterAdded[add] = true;\n        emit VoterAdded(add);\n        for(int i = 0; i < proposalCount; i++){\n            voters[add][i] = 0;\n        }\n    }\n\n    function createProposal(string memory _title, string memory _content, string memory _proposalHash) public{\n        proposalCount++;\n        proposals[proposalCount] = Proposal(proposalCount, 0,0,_title, _content,_proposalHash);\n        emit ProposalCreated(proposalCount,0,0,_title,_content,_proposalHash);\n    }\n\n    function proposalUpvoted(int proposalID, address voterAddress) public{\n        int currentVote = voters[voterAddress][proposalID];\n        if(currentVote == 1){\n            voters[voterAddress][proposalID] = 0;\n            proposals[proposalID].numPos -= 1;\n        }\n        else if(currentVote == 0){\n            voters[voterAddress][proposalID] = 1;\n            proposals[proposalID].numPos += 1;\n        }else if(currentVote == -1){\n            voters[voterAddress][proposalID] = 1;\n            proposals[proposalID].numPos++;\n            proposals[proposalID].numNeg--;\n        }\n        emit change(proposals[proposalID].numPos,proposals[proposalID].numNeg);\n    }\n\n    function proposalDownvoted(int proposalID, address voterAddress) public{\n        int currentVote = voters[voterAddress][proposalID];\n        if(currentVote == 1){\n            voters[voterAddress][proposalID] = -1;\n            proposals[proposalID].numPos--;\n            proposals[proposalID].numNeg++;\n        }\n        else if(currentVote == 0){\n            //voters[voterAddress][proposalID] = -1;\n            proposals[proposalID].numNeg++;\n        }else if(currentVote == -1){\n            voters[voterAddress][proposalID] = 0;\n            proposals[proposalID].numNeg--;\n        }\n        emit change(proposals[proposalID].numPos,proposals[proposalID].numNeg);\n    }\n\n}",
  "sourcePath": "C:/Users/polav/OneDrive/Desktop/catalyst-master/contracts/Ballot.sol",
  "compiler": {
    "name": "solc",
    "version": "0.5.0+commit.1d4f565a.Emscripten.clang"
  },
  "schemaVersion": "3.0.1",
  "updatedAt": "2022-05-07T07:22:47.281Z",
  "devdoc": {
    "methods": {}
  },
  "userdoc": {
    "methods": {}
  }
}