{
  "contractName": "Ballot",
  "abi": [
    {
      "constant": true,
      "inputs": [
        {
          "name": "",
          "type": "int256"
        }
      ],
      "name": "proposals",
      "outputs": [
        {
          "name": "proposalID",
          "type": "int256"
        },
        {
          "name": "numPos",
          "type": "int256"
        },
        {
          "name": "numNeg",
          "type": "int256"
        },
        {
          "name": "title",
          "type": "string"
        },
        {
          "name": "content",
          "type": "string"
        }
      ],
      "payable": false,
      "stateMutability": "view",
      "type": "function",
      "signature": "0x130fb26d"
    },
    {
      "constant": true,
      "inputs": [
        {
          "name": "",
          "type": "address"
        },
        {
          "name": "",
          "type": "int256"
        }
      ],
      "name": "voters",
      "outputs": [
        {
          "name": "",
          "type": "int256"
        }
      ],
      "payable": false,
      "stateMutability": "view",
      "type": "function",
      "signature": "0x3ddca616"
    },
    {
      "constant": true,
      "inputs": [
        {
          "name": "",
          "type": "address"
        }
      ],
      "name": "voterAdded",
      "outputs": [
        {
          "name": "",
          "type": "bool"
        }
      ],
      "payable": false,
      "stateMutability": "view",
      "type": "function",
      "signature": "0xb9e5f904"
    },
    {
      "constant": true,
      "inputs": [],
      "name": "proposalCount",
      "outputs": [
        {
          "name": "",
          "type": "int256"
        }
      ],
      "payable": false,
      "stateMutability": "view",
      "type": "function",
      "signature": "0xda35c664"
    },
    {
      "inputs": [],
      "payable": false,
      "stateMutability": "nonpayable",
      "type": "constructor",
      "signature": "constructor"
    },
    {
      "anonymous": false,
      "inputs": [
        {
          "indexed": false,
          "name": "proposalID",
          "type": "int256"
        },
        {
          "indexed": false,
          "name": "numPos",
          "type": "int256"
        },
        {
          "indexed": false,
          "name": "numNeg",
          "type": "int256"
        },
        {
          "indexed": false,
          "name": "title",
          "type": "string"
        },
        {
          "indexed": false,
          "name": "content",
          "type": "string"
        }
      ],
      "name": "ProposalCreated",
      "type": "event",
      "signature": "0x3d17a3df8ef540abed02086b5a0c6b12abf577e5c01caf311a22e9481614eab9"
    },
    {
      "anonymous": false,
      "inputs": [
        {
          "indexed": false,
          "name": "x",
          "type": "address"
        }
      ],
      "name": "VoterAdded",
      "type": "event",
      "signature": "0xa636f4a11e2d3ba7f89d042ecb0a6b886716e98cd49d8fd876ee0f73bced42b8"
    },
    {
      "anonymous": false,
      "inputs": [
        {
          "indexed": false,
          "name": "numPos",
          "type": "int256"
        },
        {
          "indexed": false,
          "name": "numNeg",
          "type": "int256"
        }
      ],
      "name": "change",
      "type": "event",
      "signature": "0xf6bc809835d7ac3b904bbc6560ddceeeb906355c080f278a8b7bf055eceaacc3"
    },
    {
      "constant": false,
      "inputs": [
        {
          "name": "add",
          "type": "address"
        }
      ],
      "name": "addVoter",
      "outputs": [],
      "payable": false,
      "stateMutability": "nonpayable",
      "type": "function",
      "signature": "0xf4ab9adf"
    },
    {
      "constant": false,
      "inputs": [
        {
          "name": "_title",
          "type": "string"
        },
        {
          "name": "_content",
          "type": "string"
        }
      ],
      "name": "createProposal",
      "outputs": [],
      "payable": false,
      "stateMutability": "nonpayable",
      "type": "function",
      "signature": "0x65e481e2"
    },
    {
      "constant": false,
      "inputs": [
        {
          "name": "proposalID",
          "type": "int256"
        },
        {
          "name": "voterAddress",
          "type": "address"
        }
      ],
      "name": "proposalUpvoted",
      "outputs": [],
      "payable": false,
      "stateMutability": "nonpayable",
      "type": "function",
      "signature": "0xc87a58a6"
    },
    {
      "constant": false,
      "inputs": [
        {
          "name": "proposalID",
          "type": "int256"
        },
        {
          "name": "voterAddress",
          "type": "address"
        }
      ],
      "name": "proposalDownvoted",
      "outputs": [],
      "payable": false,
      "stateMutability": "nonpayable",
      "type": "function",
      "signature": "0xb289abb3"
    }
  ],
  "bytecode": "0x6080604052600080553480156200001557600080fd5b50620000a7606060405190810160405280602281526020017f53686f756c64205341532072656e6f76617465207468656972206c696272617281526020017f793f00000000000000000000000000000000000000000000000000000000000081525060e06040519081016040528060af8152602001620018fd60af91396200016f640100000000026401000000009004565b6200013b606060405190810160405280602281526020017f53686f756c64206174686c65746963732062652064652d656d7068617369736581526020017f643f000000000000000000000000000000000000000000000000000000000000815250610420604051908101604052806103f081526020016200150d6103f091396200016f640100000000026401000000009004565b62000169730d3fe60dddcad85b534ea8b291cd7bc04bc5f3ef6200034d640100000000026401000000009004565b62000530565b600080815480929190600101919050555060a060405190810160405280600054815260200160008152602001600081526020018381526020018281525060016000805481526020019081526020016000206000820151816000015560208201518160010155604082015181600201556060820151816003019080519060200190620001fc92919062000481565b5060808201518160040190805190602001906200021b92919062000481565b509050507f3d17a3df8ef540abed02086b5a0c6b12abf577e5c01caf311a22e9481614eab96000546000808585604051808681526020018581526020018481526020018060200180602001838103835285818151815260200191508051906020019080838360005b83811015620002a057808201518184015260208101905062000283565b50505050905090810190601f168015620002ce5780820380516001836020036101000a031916815260200191505b50838103825284818151815260200191508051906020019080838360005b8381101562000309578082015181840152602081019050620002ec565b50505050905090810190601f168015620003375780820380516001836020036101000a031916815260200191505b5097505050505050505060405180910390a15050565b6001600260008373ffffffffffffffffffffffffffffffffffffffff1673ffffffffffffffffffffffffffffffffffffffff16815260200190815260200160002060006101000a81548160ff0219169083151502179055507fa636f4a11e2d3ba7f89d042ecb0a6b886716e98cd49d8fd876ee0f73bced42b881604051808273ffffffffffffffffffffffffffffffffffffffff1673ffffffffffffffffffffffffffffffffffffffff16815260200191505060405180910390a160008090505b6000548112156200047d576000600360008473ffffffffffffffffffffffffffffffffffffffff1673ffffffffffffffffffffffffffffffffffffffff16815260200190815260200160002060008381526020019081526020016000208190555080806001019150506200040e565b5050565b828054600181600116156101000203166002900490600052602060002090601f016020900481019282601f10620004c457805160ff1916838001178555620004f5565b82800160010185558215620004f5579182015b82811115620004f4578251825591602001919060010190620004d7565b5b50905062000504919062000508565b5090565b6200052d91905b80821115620005295760008160009055506001016200050f565b5090565b90565b610fcd80620005406000396000f3fe60806040526004361061008e576000357c0100000000000000000000000000000000000000000000000000000000900463ffffffff168063130fb26d146100935780633ddca616146101c857806365e481e214610237578063b289abb314610396578063b9e5f904146103f1578063c87a58a61461045a578063da35c664146104b5578063f4ab9adf146104e0575b600080fd5b34801561009f57600080fd5b506100cc600480360360208110156100b657600080fd5b8101908080359060200190929190505050610531565b604051808681526020018581526020018481526020018060200180602001838103835285818151815260200191508051906020019080838360005b83811015610122578082015181840152602081019050610107565b50505050905090810190601f16801561014f5780820380516001836020036101000a031916815260200191505b50838103825284818151815260200191508051906020019080838360005b8381101561018857808201518184015260208101905061016d565b50505050905090810190601f1680156101b55780820380516001836020036101000a031916815260200191505b5097505050505050505060405180910390f35b3480156101d457600080fd5b50610221600480360360408110156101eb57600080fd5b81019080803573ffffffffffffffffffffffffffffffffffffffff16906020019092919080359060200190929190505050610697565b6040518082815260200191505060405180910390f35b34801561024357600080fd5b506103946004803603604081101561025a57600080fd5b810190808035906020019064010000000081111561027757600080fd5b82018360208201111561028957600080fd5b803590602001918460018302840111640100000000831117156102ab57600080fd5b91908080601f016020809104026020016040519081016040528093929190818152602001838380828437600081840152601f19601f8201169050808301925050505050505091929192908035906020019064010000000081111561030e57600080fd5b82018360208201111561032057600080fd5b8035906020019184600183028401116401000000008311171561034257600080fd5b91908080601f016020809104026020016040519081016040528093929190818152602001838380828437600081840152601f19601f8201169050808301925050505050505091929192905050506106bc565b005b3480156103a257600080fd5b506103ef600480360360408110156103b957600080fd5b8101908080359060200190929190803573ffffffffffffffffffffffffffffffffffffffff169060200190929190505050610890565b005b3480156103fd57600080fd5b506104406004803603602081101561041457600080fd5b81019080803573ffffffffffffffffffffffffffffffffffffffff169060200190929190505050610b01565b604051808215151515815260200191505060405180910390f35b34801561046657600080fd5b506104b36004803603604081101561047d57600080fd5b8101908080359060200190929190803573ffffffffffffffffffffffffffffffffffffffff169060200190929190505050610b21565b005b3480156104c157600080fd5b506104ca610dc4565b6040518082815260200191505060405180910390f35b3480156104ec57600080fd5b5061052f6004803603602081101561050357600080fd5b81019080803573ffffffffffffffffffffffffffffffffffffffff169060200190929190505050610dca565b005b6001602052806000526040600020600091509050806000015490806001015490806002015490806003018054600181600116156101000203166002900480601f0160208091040260200160405190810160405280929190818152602001828054600181600116156101000203166002900480156105ef5780601f106105c4576101008083540402835291602001916105ef565b820191906000526020600020905b8154815290600101906020018083116105d257829003601f168201915b505050505090806004018054600181600116156101000203166002900480601f01602080910402602001604051908101604052809291908181526020018280546001816001161561010002031660029004801561068d5780601f106106625761010080835404028352916020019161068d565b820191906000526020600020905b81548152906001019060200180831161067057829003601f168201915b5050505050905085565b6003602052816000526040600020602052806000526040600020600091509150505481565b600080815480929190600101919050555060a060405190810160405280600054815260200160008152602001600081526020018381526020018281525060016000805481526020019081526020016000206000820151816000015560208201518160010155604082015181600201556060820151816003019080519060200190610747929190610efc565b506080820151816004019080519060200190610764929190610efc565b509050507f3d17a3df8ef540abed02086b5a0c6b12abf577e5c01caf311a22e9481614eab96000546000808585604051808681526020018581526020018481526020018060200180602001838103835285818151815260200191508051906020019080838360005b838110156107e75780820151818401526020810190506107cc565b50505050905090810190601f1680156108145780820380516001836020036101000a031916815260200191505b50838103825284818151815260200191508051906020019080838360005b8381101561084d578082015181840152602081019050610832565b50505050905090810190601f16801561087a5780820380516001836020036101000a031916815260200191505b5097505050505050505060405180910390a15050565b6000600360008373ffffffffffffffffffffffffffffffffffffffff1673ffffffffffffffffffffffffffffffffffffffff168152602001908152602001600020600084815260200190815260200160002054905060018114156109b5577fffffffffffffffffffffffffffffffffffffffffffffffffffffffffffffffff600360008473ffffffffffffffffffffffffffffffffffffffff1673ffffffffffffffffffffffffffffffffffffffff1681526020019081526020016000206000858152602001908152602001600020819055506001600084815260200190815260200160002060010160008154809291906001900391905055506001600084815260200190815260200160002060020160008154809291906001019190505550610a91565b60008114156109e9576001600084815260200190815260200160002060020160008154809291906001019190505550610a90565b7fffffffffffffffffffffffffffffffffffffffffffffffffffffffffffffffff811415610a8f576000600360008473ffffffffffffffffffffffffffffffffffffffff1673ffffffffffffffffffffffffffffffffffffffff1681526020019081526020016000206000858152602001908152602001600020819055506001600084815260200190815260200160002060020160008154809291906001900391905055505b5b5b7ff6bc809835d7ac3b904bbc6560ddceeeb906355c080f278a8b7bf055eceaacc360016000858152602001908152602001600020600101546001600086815260200190815260200160002060020154604051808381526020018281526020019250505060405180910390a1505050565b60026020528060005260406000206000915054906101000a900460ff1681565b6000600360008373ffffffffffffffffffffffffffffffffffffffff1673ffffffffffffffffffffffffffffffffffffffff16815260200190815260200160002060008481526020019081526020016000205490506001811415610bfe576000600360008473ffffffffffffffffffffffffffffffffffffffff1673ffffffffffffffffffffffffffffffffffffffff168152602001908152602001600020600085815260200190815260200160002081905550600180600085815260200190815260200160002060010160008282540392505081905550610d54565b6000811415610c86576001600360008473ffffffffffffffffffffffffffffffffffffffff1673ffffffffffffffffffffffffffffffffffffffff168152602001908152602001600020600085815260200190815260200160002081905550600180600085815260200190815260200160002060010160008282540192505081905550610d53565b7fffffffffffffffffffffffffffffffffffffffffffffffffffffffffffffffff811415610d52576001600360008473ffffffffffffffffffffffffffffffffffffffff1673ffffffffffffffffffffffffffffffffffffffff16815260200190815260200160002060008581526020019081526020016000208190555060016000848152602001908152602001600020600101600081548092919060010191905055506001600084815260200190815260200160002060020160008154809291906001900391905055505b5b5b7ff6bc809835d7ac3b904bbc6560ddceeeb906355c080f278a8b7bf055eceaacc360016000858152602001908152602001600020600101546001600086815260200190815260200160002060020154604051808381526020018281526020019250505060405180910390a1505050565b60005481565b6001600260008373ffffffffffffffffffffffffffffffffffffffff1673ffffffffffffffffffffffffffffffffffffffff16815260200190815260200160002060006101000a81548160ff0219169083151502179055507fa636f4a11e2d3ba7f89d042ecb0a6b886716e98cd49d8fd876ee0f73bced42b881604051808273ffffffffffffffffffffffffffffffffffffffff1673ffffffffffffffffffffffffffffffffffffffff16815260200191505060405180910390a160008090505b600054811215610ef8576000600360008473ffffffffffffffffffffffffffffffffffffffff1673ffffffffffffffffffffffffffffffffffffffff1681526020019081526020016000206000838152602001908152602001600020819055508080600101915050610e8b565b5050565b828054600181600116156101000203166002900490600052602060002090601f016020900481019282601f10610f3d57805160ff1916838001178555610f6b565b82800160010185558215610f6b579182015b82811115610f6a578251825591602001919060010190610f4f565b5b509050610f789190610f7c565b5090565b610f9e91905b80821115610f9a576000816000905550600101610f82565b5090565b9056fea165627a7a72305820ec370d2822c3a6962c18232c8949ccc5d12099a391b6f5fa16fae8ebadae548100294174206f7572207363686f6f6c2c2077652061726520636f6e7374616e746c7920746f6c642061626f757420746865206163636f6d706c6973686d656e7473206f66204941534153206174686c657465732e2057652068617665207065702072616c6c6965732c20616e64204941534153206174686c657465732061726520676976656e2072656420626167732e20496e206f6e65206f662074686520686f75736520617373656d626c6965732c20616c6c206174686c6574657320776572652061736b656420746f207374616e642075702c20666f7220746865697220646966666572656e742073706f7274732e20496d6167696e6520776861742069662066656c74206c696b6520666f722074686f73652077686f206469646ee28099742074616b65207061727420696e206174686c65746963732c207768656e2074686579207765726520746865206f6e6c792070656f706c65207374616e64696e672075702e205468697320776f756c642062652066696e6520696620746865792077657265207265636f676e697a65642c20627574207175697465206672616e6b6c792c2074686579206172656ee28099742e2057652061726520636f6e7374616e746c792061736b656420746f20e2809c537570706f7274206f7572204561676c6573e2809d206174206174686c65746963206576656e74732c2062757420666f722043756c436f6e2c206e6f626f6479207265616c6c792063617265732e2054686973206973737565206973206675727468657220776f7273656e6564207769746820746865205363686f6c617273204c756e6368656f6e2e205468652047504120726571756972656d656e7420697320332e372c207768696368206973206c6f7720656e6f75676820666f722061206772656174206e756d626572206f662070656f706c6520746f207175616c69667920666f722069742e2042757420666f722074686f73652077686f206172656ee280997420617320676f6f642061636164656d6963616c6c792c207468657920776f756c64206665656c2065787472656d656c7920626164207768656e2068616c6620746865207363686f6f6c20676f657320746f207468652067796d206f6e65206c756e63682e20467572746865726d6f72652c2074686f73652077686f2068617665207665727920676f6f6420475041732c206c696b6520686176696e672061626f7665206120342e312c2063616ee2809974206665656c207265636f676e697a65642062656361757365207468657920617265206265696e67207265636f676e697a656420776974682068616c6620746865207363686f6f6c2c20e2809c64696c7574696e67e2809d207468656972207265636f676e6974696f6e2e48657265206973206120726561736f6e20666f7220746869732070726f706f73616c2e48657265206973206120726561736f6e20666f7220746869732070726f706f73616c2e48657265206973206120726561736f6e20666f7220746869732070726f706f73616c2e48657265206973206120726561736f6e20666f7220746869732070726f706f73616c2e48657265206973206120726561736f6e20666f7220746869732070726f706f73616c2e",
  "source": "pragma solidity ^0.5.0;\n\ncontract Ballot{\n    int public proposalCount = 0;\n    struct Voter {\n        address x;\n    }\n    struct Proposal{\n        int proposalID; \n        int numPos;\n        int numNeg;\n        string title;\n        string content;\n    }\n    mapping(int => Proposal) public proposals;\n    mapping(address => bool) public voterAdded;\n    mapping(address => mapping(int => int)) public voters; //address to voter\n\n    event ProposalCreated(\n        int proposalID,\n        int numPos,\n        int numNeg,\n        string title,\n        string content\n    );\n\n    event VoterAdded(\n        address x\n    );\n\n    event change(\n        int numPos,\n        int numNeg\n    );\n/*\n    event ItemUpvoted(\t\n        int proposalID,\t\n        int currentVote\n    );\n\n    event ItemDownvoted(\t\n        int proposalID,\t\n        int currentVote\n    );\n*/\n\n    constructor() public{\n        createProposal(\"Should SAS renovate their library?\", \"Here is a reason for this proposal.Here is a reason for this proposal.Here is a reason for this proposal.Here is a reason for this proposal.Here is a reason for this proposal.\");\n        createProposal(\"Should athletics be de-emphasised?\", \"At our school, we are constantly told about the accomplishments of IASAS athletes. We have pep rallies, and IASAS athletes are given red bags. In one of the house assemblies, all athletes were asked to stand up, for their different sports. Imagine what if felt like for those who didn’t take part in athletics, when they were the only people standing up. This would be fine if they were recognized, but quite frankly, they aren’t. We are constantly asked to “Support our Eagles” at athletic events, but for CulCon, nobody really cares. This issue is further worsened with the Scholars Luncheon. The GPA requirement is 3.7, which is low enough for a great number of people to qualify for it. But for those who aren’t as good academically, they would feel extremely bad when half the school goes to the gym one lunch. Furthermore, those who have very good GPAs, like having above a 4.1, can’t feel recognized because they are being recognized with half the school, “diluting” their recognition.\");\n        addVoter(0x0D3FE60dDDcaD85B534EA8b291cd7bc04bc5f3ef);\n    }\n\n    function addVoter(address add) public{\n        voterAdded[add] = true;\n        emit VoterAdded(add);\n        for(int i = 0; i < proposalCount; i++){\n            voters[add][i] = 0;\n        }\n    }\n\n    function createProposal(string memory _title, string memory _content) public{\n        proposalCount++;\n        proposals[proposalCount] = Proposal(proposalCount, 0,0,_title, _content);\n        emit ProposalCreated(proposalCount,0,0,_title,_content);\n    }\n\n    function proposalUpvoted(int proposalID, address voterAddress) public{\n        int currentVote = voters[voterAddress][proposalID];\n        if(currentVote == 1){\n            voters[voterAddress][proposalID] = 0;\n            proposals[proposalID].numPos -= 1;\n        }\n        else if(currentVote == 0){\n            voters[voterAddress][proposalID] = 1;\n            proposals[proposalID].numPos += 1;\n        }else if(currentVote == -1){\n            voters[voterAddress][proposalID] = 1;\n            proposals[proposalID].numPos++;\n            proposals[proposalID].numNeg--;\n        }\n        emit change(proposals[proposalID].numPos,proposals[proposalID].numNeg);\n    }\n\n    function proposalDownvoted(int proposalID, address voterAddress) public{\n        int currentVote = voters[voterAddress][proposalID];\n        if(currentVote == 1){\n            voters[voterAddress][proposalID] = -1;\n            proposals[proposalID].numPos--;\n            proposals[proposalID].numNeg++;\n        }\n        else if(currentVote == 0){\n            //voters[voterAddress][proposalID] = -1;\n            proposals[proposalID].numNeg++;\n        }else if(currentVote == -1){\n            voters[voterAddress][proposalID] = 0;\n            proposals[proposalID].numNeg--;\n        }\n        emit change(proposals[proposalID].numPos,proposals[proposalID].numNeg);\n    }\n\n}",
  "sourcePath": "C:/Users/polav/OneDrive/Desktop/catalyst-master/contracts/Ballot.sol",
  "compiler": {
    "name": "solc",
    "version": "0.5.0+commit.1d4f565a.Emscripten.clang"
  },
  "schemaVersion": "3.0.1",
  "updatedAt": "2022-05-05T09:45:13.258Z",
  "devdoc": {
    "methods": {}
  },
  "userdoc": {
    "methods": {}
  }
}