{
  "contractName": "Ballot",
  "abi": [
    {
      "constant": true,
      "inputs": [
        {
          "name": "",
          "type": "int256"
        }
      ],
      "name": "proposals",
      "outputs": [
        {
          "name": "proposalID",
          "type": "int256"
        },
        {
          "name": "numPos",
          "type": "int256"
        },
        {
          "name": "numNeg",
          "type": "int256"
        },
        {
          "name": "title",
          "type": "string"
        },
        {
          "name": "content",
          "type": "string"
        },
        {
          "name": "proposalHash",
          "type": "string"
        }
      ],
      "payable": false,
      "stateMutability": "view",
      "type": "function",
      "signature": "0x130fb26d"
    },
    {
      "constant": true,
      "inputs": [
        {
          "name": "",
          "type": "address"
        },
        {
          "name": "",
          "type": "int256"
        }
      ],
      "name": "voters",
      "outputs": [
        {
          "name": "",
          "type": "int256"
        }
      ],
      "payable": false,
      "stateMutability": "view",
      "type": "function",
      "signature": "0x3ddca616"
    },
    {
      "constant": true,
      "inputs": [
        {
          "name": "",
          "type": "address"
        }
      ],
      "name": "voterAdded",
      "outputs": [
        {
          "name": "",
          "type": "bool"
        }
      ],
      "payable": false,
      "stateMutability": "view",
      "type": "function",
      "signature": "0xb9e5f904"
    },
    {
      "constant": true,
      "inputs": [],
      "name": "proposalCount",
      "outputs": [
        {
          "name": "",
          "type": "int256"
        }
      ],
      "payable": false,
      "stateMutability": "view",
      "type": "function",
      "signature": "0xda35c664"
    },
    {
      "anonymous": false,
      "inputs": [
        {
          "indexed": false,
          "name": "proposalID",
          "type": "int256"
        },
        {
          "indexed": false,
          "name": "numPos",
          "type": "int256"
        },
        {
          "indexed": false,
          "name": "numNeg",
          "type": "int256"
        },
        {
          "indexed": false,
          "name": "title",
          "type": "string"
        },
        {
          "indexed": false,
          "name": "content",
          "type": "string"
        },
        {
          "indexed": false,
          "name": "proposalHash",
          "type": "string"
        }
      ],
      "name": "ProposalCreated",
      "type": "event",
      "signature": "0xac42b0c671549f12eeb6227ab2cc0c00804e8ade3410893fc4286993f6f0a56b"
    },
    {
      "anonymous": false,
      "inputs": [
        {
          "indexed": false,
          "name": "x",
          "type": "address"
        }
      ],
      "name": "VoterAdded",
      "type": "event",
      "signature": "0xa636f4a11e2d3ba7f89d042ecb0a6b886716e98cd49d8fd876ee0f73bced42b8"
    },
    {
      "anonymous": false,
      "inputs": [
        {
          "indexed": false,
          "name": "numPos",
          "type": "int256"
        },
        {
          "indexed": false,
          "name": "numNeg",
          "type": "int256"
        }
      ],
      "name": "change",
      "type": "event",
      "signature": "0xf6bc809835d7ac3b904bbc6560ddceeeb906355c080f278a8b7bf055eceaacc3"
    },
    {
      "constant": false,
      "inputs": [
        {
          "name": "add",
          "type": "address"
        }
      ],
      "name": "addVoter",
      "outputs": [],
      "payable": false,
      "stateMutability": "nonpayable",
      "type": "function",
      "signature": "0xf4ab9adf"
    },
    {
      "constant": false,
      "inputs": [
        {
          "name": "_title",
          "type": "string"
        },
        {
          "name": "_content",
          "type": "string"
        },
        {
          "name": "_proposalHash",
          "type": "string"
        }
      ],
      "name": "createProposal",
      "outputs": [],
      "payable": false,
      "stateMutability": "nonpayable",
      "type": "function",
      "signature": "0x583cf379"
    },
    {
      "constant": false,
      "inputs": [
        {
          "name": "proposalID",
          "type": "int256"
        },
        {
          "name": "voterAddress",
          "type": "address"
        }
      ],
      "name": "proposalUpvoted",
      "outputs": [],
      "payable": false,
      "stateMutability": "nonpayable",
      "type": "function",
      "signature": "0xc87a58a6"
    },
    {
      "constant": false,
      "inputs": [
        {
          "name": "proposalID",
          "type": "int256"
        },
        {
          "name": "voterAddress",
          "type": "address"
        }
      ],
      "name": "proposalDownvoted",
      "outputs": [],
      "payable": false,
      "stateMutability": "nonpayable",
      "type": "function",
      "signature": "0xb289abb3"
    }
  ],
  "bytecode": "0x60806040526000805534801561001457600080fd5b5061126a806100246000396000f3fe60806040526004361061008e576000357c0100000000000000000000000000000000000000000000000000000000900463ffffffff168063130fb26d146100935780633ddca61614610234578063583cf379146102a3578063b289abb314610499578063b9e5f904146104f4578063c87a58a61461055d578063da35c664146105b8578063f4ab9adf146105e3575b600080fd5b34801561009f57600080fd5b506100cc600480360360208110156100b657600080fd5b8101908080359060200190929190505050610634565b60405180878152602001868152602001858152602001806020018060200180602001848103845287818151815260200191508051906020019080838360005b8381101561012657808201518184015260208101905061010b565b50505050905090810190601f1680156101535780820380516001836020036101000a031916815260200191505b50848103835286818151815260200191508051906020019080838360005b8381101561018c578082015181840152602081019050610171565b50505050905090810190601f1680156101b95780820380516001836020036101000a031916815260200191505b50848103825285818151815260200191508051906020019080838360005b838110156101f25780820151818401526020810190506101d7565b50505050905090810190601f16801561021f5780820380516001836020036101000a031916815260200191505b50995050505050505050505060405180910390f35b34801561024057600080fd5b5061028d6004803603604081101561025757600080fd5b81019080803573ffffffffffffffffffffffffffffffffffffffff16906020019092919080359060200190929190505050610838565b6040518082815260200191505060405180910390f35b3480156102af57600080fd5b50610497600480360360608110156102c657600080fd5b81019080803590602001906401000000008111156102e357600080fd5b8201836020820111156102f557600080fd5b8035906020019184600183028401116401000000008311171561031757600080fd5b91908080601f016020809104026020016040519081016040528093929190818152602001838380828437600081840152601f19601f8201169050808301925050505050505091929192908035906020019064010000000081111561037a57600080fd5b82018360208201111561038c57600080fd5b803590602001918460018302840111640100000000831117156103ae57600080fd5b91908080601f016020809104026020016040519081016040528093929190818152602001838380828437600081840152601f19601f8201169050808301925050505050505091929192908035906020019064010000000081111561041157600080fd5b82018360208201111561042357600080fd5b8035906020019184600183028401116401000000008311171561044557600080fd5b91908080601f016020809104026020016040519081016040528093929190818152602001838380828437600081840152601f19601f82011690508083019250505050505050919291929050505061085d565b005b3480156104a557600080fd5b506104f2600480360360408110156104bc57600080fd5b8101908080359060200190929190803573ffffffffffffffffffffffffffffffffffffffff169060200190929190505050610ac2565b005b34801561050057600080fd5b506105436004803603602081101561051757600080fd5b81019080803573ffffffffffffffffffffffffffffffffffffffff169060200190929190505050610da3565b604051808215151515815260200191505060405180910390f35b34801561056957600080fd5b506105b66004803603604081101561058057600080fd5b8101908080359060200190929190803573ffffffffffffffffffffffffffffffffffffffff169060200190929190505050610dc3565b005b3480156105c457600080fd5b506105cd611061565b6040518082815260200191505060405180910390f35b3480156105ef57600080fd5b506106326004803603602081101561060657600080fd5b81019080803573ffffffffffffffffffffffffffffffffffffffff169060200190929190505050611067565b005b6001602052806000526040600020600091509050806000015490806001015490806002015490806003018054600181600116156101000203166002900480601f0160208091040260200160405190810160405280929190818152602001828054600181600116156101000203166002900480156106f25780601f106106c7576101008083540402835291602001916106f2565b820191906000526020600020905b8154815290600101906020018083116106d557829003601f168201915b505050505090806004018054600181600116156101000203166002900480601f0160208091040260200160405190810160405280929190818152602001828054600181600116156101000203166002900480156107905780601f1061076557610100808354040283529160200191610790565b820191906000526020600020905b81548152906001019060200180831161077357829003601f168201915b505050505090806005018054600181600116156101000203166002900480601f01602080910402602001604051908101604052809291908181526020018280546001816001161561010002031660029004801561082e5780601f106108035761010080835404028352916020019161082e565b820191906000526020600020905b81548152906001019060200180831161081157829003601f168201915b5050505050905086565b6003602052816000526040600020602052806000526040600020600091509150505481565b600080815480929190600101919050555060c0604051908101604052806000548152602001600081526020016000815260200184815260200183815260200182815250600160008054815260200190815260200160002060008201518160000155602082015181600101556040820151816002015560608201518160030190805190602001906108ee929190611199565b50608082015181600401908051906020019061090b929190611199565b5060a0820151816005019080519060200190610928929190611199565b509050507fac42b0c671549f12eeb6227ab2cc0c00804e8ade3410893fc4286993f6f0a56b60005460008086868660405180878152602001868152602001858152602001806020018060200180602001848103845287818151815260200191508051906020019080838360005b838110156109b0578082015181840152602081019050610995565b50505050905090810190601f1680156109dd5780820380516001836020036101000a031916815260200191505b50848103835286818151815260200191508051906020019080838360005b83811015610a165780820151818401526020810190506109fb565b50505050905090810190601f168015610a435780820380516001836020036101000a031916815260200191505b50848103825285818151815260200191508051906020019080838360005b83811015610a7c578082015181840152602081019050610a61565b50505050905090810190601f168015610aa95780820380516001836020036101000a031916815260200191505b50995050505050505050505060405180910390a1505050565b6000600360008373ffffffffffffffffffffffffffffffffffffffff1673ffffffffffffffffffffffffffffffffffffffff16815260200190815260200160002060008481526020019081526020016000205490506001811415610be2577fffffffffffffffffffffffffffffffffffffffffffffffffffffffffffffffff600360008473ffffffffffffffffffffffffffffffffffffffff1673ffffffffffffffffffffffffffffffffffffffff168152602001908152602001600020600085815260200190815260200160002081905550600180600085815260200190815260200160002060010160008282540392505081905550600180600085815260200190815260200160002060020160008282540192505081905550610d33565b6000811415610c8b577fffffffffffffffffffffffffffffffffffffffffffffffffffffffffffffffff600360008473ffffffffffffffffffffffffffffffffffffffff1673ffffffffffffffffffffffffffffffffffffffff1681526020019081526020016000206000858152602001908152602001600020819055506001600084815260200190815260200160002060020160008154809291906001019190505550610d32565b7fffffffffffffffffffffffffffffffffffffffffffffffffffffffffffffffff811415610d31576000600360008473ffffffffffffffffffffffffffffffffffffffff1673ffffffffffffffffffffffffffffffffffffffff1681526020019081526020016000206000858152602001908152602001600020819055506001600084815260200190815260200160002060020160008154809291906001900391905055505b5b5b7ff6bc809835d7ac3b904bbc6560ddceeeb906355c080f278a8b7bf055eceaacc360016000858152602001908152602001600020600101546001600086815260200190815260200160002060020154604051808381526020018281526020019250505060405180910390a1505050565b60026020528060005260406000206000915054906101000a900460ff1681565b6000600360008373ffffffffffffffffffffffffffffffffffffffff1673ffffffffffffffffffffffffffffffffffffffff16815260200190815260200160002060008481526020019081526020016000205490506001811415610ea0576000600360008473ffffffffffffffffffffffffffffffffffffffff1673ffffffffffffffffffffffffffffffffffffffff168152602001908152602001600020600085815260200190815260200160002081905550600180600085815260200190815260200160002060010160008282540392505081905550610ff1565b6000811415610f28576001600360008473ffffffffffffffffffffffffffffffffffffffff1673ffffffffffffffffffffffffffffffffffffffff168152602001908152602001600020600085815260200190815260200160002081905550600180600085815260200190815260200160002060010160008282540192505081905550610ff0565b7fffffffffffffffffffffffffffffffffffffffffffffffffffffffffffffffff811415610fef576001600360008473ffffffffffffffffffffffffffffffffffffffff1673ffffffffffffffffffffffffffffffffffffffff1681526020019081526020016000206000858152602001908152602001600020819055506001806000858152602001908152602001600020600101600082825401925050819055506001806000858152602001908152602001600020600201600082825403925050819055505b5b5b7ff6bc809835d7ac3b904bbc6560ddceeeb906355c080f278a8b7bf055eceaacc360016000858152602001908152602001600020600101546001600086815260200190815260200160002060020154604051808381526020018281526020019250505060405180910390a1505050565b60005481565b6001600260008373ffffffffffffffffffffffffffffffffffffffff1673ffffffffffffffffffffffffffffffffffffffff16815260200190815260200160002060006101000a81548160ff0219169083151502179055507fa636f4a11e2d3ba7f89d042ecb0a6b886716e98cd49d8fd876ee0f73bced42b881604051808273ffffffffffffffffffffffffffffffffffffffff1673ffffffffffffffffffffffffffffffffffffffff16815260200191505060405180910390a160008090505b600054811215611195576000600360008473ffffffffffffffffffffffffffffffffffffffff1673ffffffffffffffffffffffffffffffffffffffff1681526020019081526020016000206000838152602001908152602001600020819055508080600101915050611128565b5050565b828054600181600116156101000203166002900490600052602060002090601f016020900481019282601f106111da57805160ff1916838001178555611208565b82800160010185558215611208579182015b828111156112075782518255916020019190600101906111ec565b5b5090506112159190611219565b5090565b61123b91905b8082111561123757600081600090555060010161121f565b5090565b9056fea165627a7a72305820a240cad209743b5c60eb11804d2d6b400344071ab8cffa2cb3fa584419ed977a0029",
  "source": "pragma solidity ^0.5.0;\n\ncontract Ballot{\n    int public proposalCount = 0;\n    struct Voter {\n        address x;\n    }\n    struct Proposal{\n        int proposalID; \n        int numPos;\n        int numNeg;\n        string title;\n        string content;\n        string proposalHash;\n    }\n    mapping(int => Proposal) public proposals;\n    mapping(address => bool) public voterAdded;\n    mapping(address => mapping(int => int)) public voters; //address to voter's current vote\n\n    event ProposalCreated(\n        int proposalID,\n        int numPos,\n        int numNeg,\n        string title,\n        string content,\n        string proposalHash\n    );\n\n    event VoterAdded(\n        address x\n    );\n\n    event change(\n        int numPos,\n        int numNeg\n    );\n/*\n    event ItemUpvoted(\t\n        int proposalID,\t\n        int currentVote\n    );\n\n    event ItemDownvoted(\t\n        int proposalID,\t\n        int currentVote\n    );\n*/\n\n\n    function addVoter(address add) public{\n        voterAdded[add] = true;\n        emit VoterAdded(add);\n        for(int i = 0; i < proposalCount; i++){\n            voters[add][i] = 0;\n        }\n    }\n\n    function createProposal(string memory _title, string memory _content, string memory _proposalHash) public{\n        proposalCount++;\n        proposals[proposalCount] = Proposal(proposalCount, 0,0,_title, _content,_proposalHash);\n        emit ProposalCreated(proposalCount,0,0,_title,_content,_proposalHash);\n    }\n\n    function proposalUpvoted(int proposalID, address voterAddress) public{\n        int currentVote = voters[voterAddress][proposalID];\n        if(currentVote == 1){\n            voters[voterAddress][proposalID] = 0;\n            proposals[proposalID].numPos -= 1;\n        }\n        else if(currentVote == 0){\n            voters[voterAddress][proposalID] = 1;\n            proposals[proposalID].numPos += 1;\n        }else if(currentVote == -1){\n            voters[voterAddress][proposalID] = 1;\n            proposals[proposalID].numPos += 1;\n            proposals[proposalID].numNeg -= 1;\n        }\n        emit change(proposals[proposalID].numPos,proposals[proposalID].numNeg);\n    }\n\n    function proposalDownvoted(int proposalID, address voterAddress) public{\n        int currentVote = voters[voterAddress][proposalID];\n        if(currentVote == 1){\n            voters[voterAddress][proposalID] = -1;\n            proposals[proposalID].numPos -= 1;\n            proposals[proposalID].numNeg += 1;\n        }\n        else if(currentVote == 0){\n            voters[voterAddress][proposalID] = -1;\n            proposals[proposalID].numNeg++;\n        }else if(currentVote == -1){\n            voters[voterAddress][proposalID] = 0;\n            proposals[proposalID].numNeg--;\n        }\n        emit change(proposals[proposalID].numPos,proposals[proposalID].numNeg);\n    }\n\n}",
  "sourcePath": "C:/Users/polav/OneDrive/Desktop/catalyst-master/contracts/Ballot.sol",
  "compiler": {
    "name": "solc",
    "version": "0.5.0+commit.1d4f565a.Emscripten.clang"
  },
  "schemaVersion": "3.0.1",
  "updatedAt": "2022-05-13T10:14:35.736Z",
  "devdoc": {
    "methods": {}
  },
  "userdoc": {
    "methods": {}
  }
}